{
	"data": {
		"bytecode": {
			"linkReferences": {},
			"object": "6080604052348015600e575f5ffd5b50335f5f6101000a81548173ffffffffffffffffffffffffffffffffffffffff021916908373ffffffffffffffffffffffffffffffffffffffff1602179055505f6001819055505f5f60146101000a81548160ff021916908315150217905550611de08061007b5f395ff3fe608060405234801561000f575f5ffd5b50600436106100b2575f3560e01c80636670a73e1161006f5780636670a73e146101675780637de14242146101975780638e7ea5b2146101ca57806398ecf2a0146101e9578063f851a44014610207578063fab2f86b14610225576100b2565b80630121b93f146100b65780630dbce4dd146100d2578063408e2727146100ee578063438596321461010c5780634717f97c1461013c57806347f33fb51461015d575b5f5ffd5b6100d060048036038101906100cb91906110e3565b61022f565b005b6100ec60048036038101906100e7919061124a565b610459565b005b6100f661067a565b60405161010391906112da565b60405180910390f35b6101266004803603810190610121919061134d565b61068c565b60405161013391906112da565b60405180910390f35b6101446106b6565b604051610154949392919061155d565b60405180910390f35b610165610a34565b005b610181600480360381019061017c91906110e3565b610b5c565b60405161018e91906115cb565b60405180910390f35b6101b160048036038101906101ac91906115e4565b610b71565b6040516101c1949392919061166a565b60405180910390f35b6101d2610cb4565b6040516101e09291906116bb565b60405180910390f35b6101f1610f93565b6040516101fe91906115cb565b60405180910390f35b61020f610f99565b60405161021c91906116f8565b60405180910390f35b61022d610fbd565b005b5f60149054906101000a900460ff1661027d576040517f08c379a00000000000000000000000000000000000000000000000000000000081526004016102749061175b565b60405180910390fd5b60045f60015481526020019081526020015f205f3373ffffffffffffffffffffffffffffffffffffffff1673ffffffffffffffffffffffffffffffffffffffff1681526020019081526020015f205f9054906101000a900460ff1615610318576040517f08c379a000000000000000000000000000000000000000000000000000000000815260040161030f906117c3565b60405180910390fd5b5f8111801561033a575060035f60015481526020019081526020015f20548111155b610379576040517f08c379a00000000000000000000000000000000000000000000000000000000081526004016103709061182b565b60405180910390fd5b600160045f60015481526020019081526020015f205f3373ffffffffffffffffffffffffffffffffffffffff1673ffffffffffffffffffffffffffffffffffffffff1681526020019081526020015f205f6101000a81548160ff02191690831515021790555060025f60015481526020019081526020015f205f8281526020019081526020015f206003015f81548092919061041490611876565b91905055507fe7ee74ca1f4bb1b82b14f87794c45b3e59c39e372b862fb97a6316b43355b69e600154338360405161044e939291906118bd565b60405180910390a150565b5f5f9054906101000a900473ffffffffffffffffffffffffffffffffffffffff1673ffffffffffffffffffffffffffffffffffffffff163373ffffffffffffffffffffffffffffffffffffffff16146104e7576040517f08c379a00000000000000000000000000000000000000000000000000000000081526004016104de9061193c565b60405180910390fd5b5f6001541161052b576040517f08c379a0000000000000000000000000000000000000000000000000000000008152600401610522906119a4565b60405180910390fd5b5f60149054906101000a900460ff16610579576040517f08c379a000000000000000000000000000000000000000000000000000000000815260040161057090611a32565b60405180910390fd5b5f60035f60015481526020019081526020015f20549050808061059b90611876565b91505060405180608001604052808281526020018481526020018381526020015f81525060025f60015481526020019081526020015f205f8381526020019081526020015f205f820151815f015560208201518160010190816105fe9190611c4d565b5060408201518160020190816106149190611c4d565b50606082015181600301559050508060035f60015481526020019081526020015f20819055507f96b6e1d9af8279de0ae4d01600bcae708bdb292c4a8f8f150aff92f5caf56a426001548460405161066d929190611d1c565b60405180910390a1505050565b5f60149054906101000a900460ff1681565b6004602052815f5260405f20602052805f5260405f205f915091509054906101000a900460ff1681565b6060806060805f60035f60015481526020019081526020015f205490505f8167ffffffffffffffff8111156106ee576106ed611126565b5b60405190808252806020026020018201604052801561071c5781602001602082028036833780820191505090505b5090505f8267ffffffffffffffff81111561073a57610739611126565b5b60405190808252806020026020018201604052801561076d57816020015b60608152602001906001900390816107585790505b5090505f8367ffffffffffffffff81111561078b5761078a611126565b5b6040519080825280602002602001820160405280156107be57816020015b60608152602001906001900390816107a95790505b5090505f8467ffffffffffffffff8111156107dc576107db611126565b5b60405190808252806020026020018201604052801561080a5781602001602082028036833780820191505090505b5090505f600190505b858111610a1c575f60025f60015481526020019081526020015f205f8381526020019081526020015f209050805f0154866001846108519190611d4a565b8151811061086257610861611d7d565b5b60200260200101818152505080600101805461087d90611a7d565b80601f01602080910402602001604051908101604052809291908181526020018280546108a990611a7d565b80156108f45780601f106108cb576101008083540402835291602001916108f4565b820191905f5260205f20905b8154815290600101906020018083116108d757829003601f168201915b5050505050856001846109079190611d4a565b8151811061091857610917611d7d565b5b602002602001018190525080600201805461093290611a7d565b80601f016020809104026020016040519081016040528092919081815260200182805461095e90611a7d565b80156109a95780601f10610980576101008083540402835291602001916109a9565b820191905f5260205f20905b81548152906001019060200180831161098c57829003601f168201915b5050505050846001846109bc9190611d4a565b815181106109cd576109cc611d7d565b5b60200260200101819052508060030154836001846109eb9190611d4a565b815181106109fc576109fb611d7d565b5b602002602001018181525050508080610a1490611876565b915050610813565b50838383839850985098509850505050505090919293565b5f5f9054906101000a900473ffffffffffffffffffffffffffffffffffffffff1673ffffffffffffffffffffffffffffffffffffffff163373ffffffffffffffffffffffffffffffffffffffff1614610ac2576040517f08c379a0000000000000000000000000000000000000000000000000000000008152600401610ab99061193c565b60405180910390fd5b5f60149054906101000a900460ff1615610af0575f5f60146101000a81548160ff0219169083151502179055505b60015f815480929190610b0290611876565b919050555060015f60146101000a81548160ff0219169083151502179055507f159eee87222a0489c529f2153c26ad65d718f2cc33ebaa8d399d1dd5b39facaa600154604051610b5291906115cb565b60405180910390a1565b6003602052805f5260405f205f915090505481565b6002602052815f5260405f20602052805f5260405f205f9150915050805f015490806001018054610ba190611a7d565b80601f0160208091040260200160405190810160405280929190818152602001828054610bcd90611a7d565b8015610c185780601f10610bef57610100808354040283529160200191610c18565b820191905f5260205f20905b815481529060010190602001808311610bfb57829003601f168201915b505050505090806002018054610c2d90611a7d565b80601f0160208091040260200160405190810160405280929190818152602001828054610c5990611a7d565b8015610ca45780601f10610c7b57610100808354040283529160200191610ca4565b820191905f5260205f20905b815481529060010190602001808311610c8757829003601f168201915b5050505050908060030154905084565b60605f5f5f90505f60035f60015481526020019081526020015f205490505f8103610d33575f67ffffffffffffffff811115610cf357610cf2611126565b5b604051908082528060200260200182016040528015610d2657816020015b6060815260200190600190039081610d115790505b505f935093505050610f8f565b5f600190505b818111610da9578260025f60015481526020019081526020015f205f8381526020019081526020015f20600301541115610d965760025f60015481526020019081526020015f205f8281526020019081526020015f206003015492505b8080610da190611876565b915050610d39565b505f5f90505f600190505b828111610e09578360025f60015481526020019081526020015f205f8381526020019081526020015f206003015403610df6578180610df290611876565b9250505b8080610e0190611876565b915050610db4565b508067ffffffffffffffff811115610e2457610e23611126565b5b604051908082528060200260200182016040528015610e5757816020015b6060815260200190600190039081610e425790505b5094505f5f90505f600190505b838111610f83578460025f60015481526020019081526020015f205f8381526020019081526020015f206003015403610f705760025f60015481526020019081526020015f205f8281526020019081526020015f206001018054610ec790611a7d565b80601f0160208091040260200160405190810160405280929190818152602001828054610ef390611a7d565b8015610f3e5780601f10610f1557610100808354040283529160200191610f3e565b820191905f5260205f20905b815481529060010190602001808311610f2157829003601f168201915b5050505050878381518110610f5657610f55611d7d565b5b60200260200101819052508180610f6c90611876565b9250505b8080610f7b90611876565b915050610e64565b50858495509550505050505b9091565b60015481565b5f5f9054906101000a900473ffffffffffffffffffffffffffffffffffffffff1681565b5f5f9054906101000a900473ffffffffffffffffffffffffffffffffffffffff1673ffffffffffffffffffffffffffffffffffffffff163373ffffffffffffffffffffffffffffffffffffffff161461104b576040517f08c379a00000000000000000000000000000000000000000000000000000000081526004016110429061193c565b60405180910390fd5b5f5f60146101000a81548160ff0219169083151502179055507f3cd57ec51c1cd733d39d31a11697fa24455ff7096632417016bb8d84c882d60b60015460405161109591906115cb565b60405180910390a1565b5f604051905090565b5f5ffd5b5f5ffd5b5f819050919050565b6110c2816110b0565b81146110cc575f5ffd5b50565b5f813590506110dd816110b9565b92915050565b5f602082840312156110f8576110f76110a8565b5b5f611105848285016110cf565b91505092915050565b5f5ffd5b5f5ffd5b5f601f19601f8301169050919050565b7f4e487b71000000000000000000000000000000000000000000000000000000005f52604160045260245ffd5b61115c82611116565b810181811067ffffffffffffffff8211171561117b5761117a611126565b5b80604052505050565b5f61118d61109f565b90506111998282611153565b919050565b5f67ffffffffffffffff8211156111b8576111b7611126565b5b6111c182611116565b9050602081019050919050565b828183375f83830152505050565b5f6111ee6111e98461119e565b611184565b90508281526020810184848401111561120a57611209611112565b5b6112158482856111ce565b509392505050565b5f82601f8301126112315761123061110e565b5b81356112418482602086016111dc565b91505092915050565b5f5f604083850312156112605761125f6110a8565b5b5f83013567ffffffffffffffff81111561127d5761127c6110ac565b5b6112898582860161121d565b925050602083013567ffffffffffffffff8111156112aa576112a96110ac565b5b6112b68582860161121d565b9150509250929050565b5f8115159050919050565b6112d4816112c0565b82525050565b5f6020820190506112ed5f8301846112cb565b92915050565b5f73ffffffffffffffffffffffffffffffffffffffff82169050919050565b5f61131c826112f3565b9050919050565b61132c81611312565b8114611336575f5ffd5b50565b5f8135905061134781611323565b92915050565b5f5f60408385031215611363576113626110a8565b5b5f611370858286016110cf565b925050602061138185828601611339565b9150509250929050565b5f81519050919050565b5f82825260208201905092915050565b5f819050602082019050919050565b6113bd816110b0565b82525050565b5f6113ce83836113b4565b60208301905092915050565b5f602082019050919050565b5f6113f08261138b565b6113fa8185611395565b9350611405836113a5565b805f5b8381101561143557815161141c88826113c3565b9750611427836113da565b925050600181019050611408565b5085935050505092915050565b5f81519050919050565b5f82825260208201905092915050565b5f819050602082019050919050565b5f81519050919050565b5f82825260208201905092915050565b8281835e5f83830152505050565b5f61149d8261146b565b6114a78185611475565b93506114b7818560208601611485565b6114c081611116565b840191505092915050565b5f6114d68383611493565b905092915050565b5f602082019050919050565b5f6114f482611442565b6114fe818561144c565b9350836020820285016115108561145c565b805f5b8581101561154b578484038952815161152c85826114cb565b9450611537836114de565b925060208a01995050600181019050611513565b50829750879550505050505092915050565b5f6080820190508181035f83015261157581876113e6565b9050818103602083015261158981866114ea565b9050818103604083015261159d81856114ea565b905081810360608301526115b181846113e6565b905095945050505050565b6115c5816110b0565b82525050565b5f6020820190506115de5f8301846115bc565b92915050565b5f5f604083850312156115fa576115f96110a8565b5b5f611607858286016110cf565b9250506020611618858286016110cf565b9150509250929050565b5f82825260208201905092915050565b5f61163c8261146b565b6116468185611622565b9350611656818560208601611485565b61165f81611116565b840191505092915050565b5f60808201905061167d5f8301876115bc565b818103602083015261168f8186611632565b905081810360408301526116a38185611632565b90506116b260608301846115bc565b95945050505050565b5f6040820190508181035f8301526116d381856114ea565b90506116e260208301846115bc565b9392505050565b6116f281611312565b82525050565b5f60208201905061170b5f8301846116e9565b92915050565b7f4261752063752064616e6720646f6e67000000000000000000000000000000005f82015250565b5f611745601083611622565b915061175082611711565b602082019050919050565b5f6020820190508181035f83015261177281611739565b9050919050565b7f42616e20646120626f20706869657500000000000000000000000000000000005f82015250565b5f6117ad600f83611622565b91506117b882611779565b602082019050919050565b5f6020820190508181035f8301526117da816117a1565b9050919050565b7f49442073616900000000000000000000000000000000000000000000000000005f82015250565b5f611815600683611622565b9150611820826117e1565b602082019050919050565b5f6020820190508181035f83015261184281611809565b9050919050565b7f4e487b71000000000000000000000000000000000000000000000000000000005f52601160045260245ffd5b5f611880826110b0565b91507fffffffffffffffffffffffffffffffffffffffffffffffffffffffffffffffff82036118b2576118b1611849565b5b600182019050919050565b5f6060820190506118d05f8301866115bc565b6118dd60208301856116e9565b6118ea60408301846115bc565b949350505050565b7f4368692061646d696e206d6f6920636f20717579656e000000000000000000005f82015250565b5f611926601683611622565b9150611931826118f2565b602082019050919050565b5f6020820190508181035f8301526119538161191a565b9050919050565b7f48652074686f6e6720636875612064756f63206b686f692074616f2e000000005f82015250565b5f61198e601c83611622565b91506119998261195a565b602082019050919050565b5f6020820190508181035f8301526119bb81611982565b9050919050565b7f4b686f6e672074686520626f2073756e6720756e67207669656e206b686920635f8201527f756f632062696e682063686f6e206461206b657420746875632e000000000000602082015250565b5f611a1c603a83611622565b9150611a27826119c2565b604082019050919050565b5f6020820190508181035f830152611a4981611a10565b9050919050565b7f4e487b71000000000000000000000000000000000000000000000000000000005f52602260045260245ffd5b5f6002820490506001821680611a9457607f821691505b602082108103611aa757611aa6611a50565b5b50919050565b5f819050815f5260205f209050919050565b5f6020601f8301049050919050565b5f82821b905092915050565b5f60088302611b097fffffffffffffffffffffffffffffffffffffffffffffffffffffffffffffffff82611ace565b611b138683611ace565b95508019841693508086168417925050509392505050565b5f819050919050565b5f611b4e611b49611b44846110b0565b611b2b565b6110b0565b9050919050565b5f819050919050565b611b6783611b34565b611b7b611b7382611b55565b848454611ada565b825550505050565b5f5f905090565b611b92611b83565b611b9d818484611b5e565b505050565b5b81811015611bc057611bb55f82611b8a565b600181019050611ba3565b5050565b601f821115611c0557611bd681611aad565b611bdf84611abf565b81016020851015611bee578190505b611c02611bfa85611abf565b830182611ba2565b50505b505050565b5f82821c905092915050565b5f611c255f1984600802611c0a565b1980831691505092915050565b5f611c3d8383611c16565b9150826002028217905092915050565b611c568261146b565b67ffffffffffffffff811115611c6f57611c6e611126565b5b611c798254611a7d565b611c84828285611bc4565b5f60209050601f831160018114611cb5575f8415611ca3578287015190505b611cad8582611c32565b865550611d14565b601f198416611cc386611aad565b5f5b82811015611cea57848901518255600182019150602085019450602081019050611cc5565b86831015611d075784890151611d03601f891682611c16565b8355505b6001600288020188555050505b505050505050565b5f604082019050611d2f5f8301856115bc565b8181036020830152611d418184611632565b90509392505050565b5f611d54826110b0565b9150611d5f836110b0565b9250828203905081811115611d7757611d76611849565b5b92915050565b7f4e487b71000000000000000000000000000000000000000000000000000000005f52603260045260245ffdfea26469706673582212200ba6ab4e62aabf4be7cda8f92c4ccd3475980d3ad95334916a3fa867668b716564736f6c634300081f0033",
			"opcodes": "PUSH1 0x80 PUSH1 0x40 MSTORE CALLVALUE DUP1 ISZERO PUSH1 0xE JUMPI PUSH0 PUSH0 REVERT JUMPDEST POP CALLER PUSH0 PUSH0 PUSH2 0x100 EXP DUP2 SLOAD DUP2 PUSH20 0xFFFFFFFFFFFFFFFFFFFFFFFFFFFFFFFFFFFFFFFF MUL NOT AND SWAP1 DUP4 PUSH20 0xFFFFFFFFFFFFFFFFFFFFFFFFFFFFFFFFFFFFFFFF AND MUL OR SWAP1 SSTORE POP PUSH0 PUSH1 0x1 DUP2 SWAP1 SSTORE POP PUSH0 PUSH0 PUSH1 0x14 PUSH2 0x100 EXP DUP2 SLOAD DUP2 PUSH1 0xFF MUL NOT AND SWAP1 DUP4 ISZERO ISZERO MUL OR SWAP1 SSTORE POP PUSH2 0x1DE0 DUP1 PUSH2 0x7B PUSH0 CODECOPY PUSH0 RETURN INVALID PUSH1 0x80 PUSH1 0x40 MSTORE CALLVALUE DUP1 ISZERO PUSH2 0xF JUMPI PUSH0 PUSH0 REVERT JUMPDEST POP PUSH1 0x4 CALLDATASIZE LT PUSH2 0xB2 JUMPI PUSH0 CALLDATALOAD PUSH1 0xE0 SHR DUP1 PUSH4 0x6670A73E GT PUSH2 0x6F JUMPI DUP1 PUSH4 0x6670A73E EQ PUSH2 0x167 JUMPI DUP1 PUSH4 0x7DE14242 EQ PUSH2 0x197 JUMPI DUP1 PUSH4 0x8E7EA5B2 EQ PUSH2 0x1CA JUMPI DUP1 PUSH4 0x98ECF2A0 EQ PUSH2 0x1E9 JUMPI DUP1 PUSH4 0xF851A440 EQ PUSH2 0x207 JUMPI DUP1 PUSH4 0xFAB2F86B EQ PUSH2 0x225 JUMPI PUSH2 0xB2 JUMP JUMPDEST DUP1 PUSH4 0x121B93F EQ PUSH2 0xB6 JUMPI DUP1 PUSH4 0xDBCE4DD EQ PUSH2 0xD2 JUMPI DUP1 PUSH4 0x408E2727 EQ PUSH2 0xEE JUMPI DUP1 PUSH4 0x43859632 EQ PUSH2 0x10C JUMPI DUP1 PUSH4 0x4717F97C EQ PUSH2 0x13C JUMPI DUP1 PUSH4 0x47F33FB5 EQ PUSH2 0x15D JUMPI JUMPDEST PUSH0 PUSH0 REVERT JUMPDEST PUSH2 0xD0 PUSH1 0x4 DUP1 CALLDATASIZE SUB DUP2 ADD SWAP1 PUSH2 0xCB SWAP2 SWAP1 PUSH2 0x10E3 JUMP JUMPDEST PUSH2 0x22F JUMP JUMPDEST STOP JUMPDEST PUSH2 0xEC PUSH1 0x4 DUP1 CALLDATASIZE SUB DUP2 ADD SWAP1 PUSH2 0xE7 SWAP2 SWAP1 PUSH2 0x124A JUMP JUMPDEST PUSH2 0x459 JUMP JUMPDEST STOP JUMPDEST PUSH2 0xF6 PUSH2 0x67A JUMP JUMPDEST PUSH1 0x40 MLOAD PUSH2 0x103 SWAP2 SWAP1 PUSH2 0x12DA JUMP JUMPDEST PUSH1 0x40 MLOAD DUP1 SWAP2 SUB SWAP1 RETURN JUMPDEST PUSH2 0x126 PUSH1 0x4 DUP1 CALLDATASIZE SUB DUP2 ADD SWAP1 PUSH2 0x121 SWAP2 SWAP1 PUSH2 0x134D JUMP JUMPDEST PUSH2 0x68C JUMP JUMPDEST PUSH1 0x40 MLOAD PUSH2 0x133 SWAP2 SWAP1 PUSH2 0x12DA JUMP JUMPDEST PUSH1 0x40 MLOAD DUP1 SWAP2 SUB SWAP1 RETURN JUMPDEST PUSH2 0x144 PUSH2 0x6B6 JUMP JUMPDEST PUSH1 0x40 MLOAD PUSH2 0x154 SWAP5 SWAP4 SWAP3 SWAP2 SWAP1 PUSH2 0x155D JUMP JUMPDEST PUSH1 0x40 MLOAD DUP1 SWAP2 SUB SWAP1 RETURN JUMPDEST PUSH2 0x165 PUSH2 0xA34 JUMP JUMPDEST STOP JUMPDEST PUSH2 0x181 PUSH1 0x4 DUP1 CALLDATASIZE SUB DUP2 ADD SWAP1 PUSH2 0x17C SWAP2 SWAP1 PUSH2 0x10E3 JUMP JUMPDEST PUSH2 0xB5C JUMP JUMPDEST PUSH1 0x40 MLOAD PUSH2 0x18E SWAP2 SWAP1 PUSH2 0x15CB JUMP JUMPDEST PUSH1 0x40 MLOAD DUP1 SWAP2 SUB SWAP1 RETURN JUMPDEST PUSH2 0x1B1 PUSH1 0x4 DUP1 CALLDATASIZE SUB DUP2 ADD SWAP1 PUSH2 0x1AC SWAP2 SWAP1 PUSH2 0x15E4 JUMP JUMPDEST PUSH2 0xB71 JUMP JUMPDEST PUSH1 0x40 MLOAD PUSH2 0x1C1 SWAP5 SWAP4 SWAP3 SWAP2 SWAP1 PUSH2 0x166A JUMP JUMPDEST PUSH1 0x40 MLOAD DUP1 SWAP2 SUB SWAP1 RETURN JUMPDEST PUSH2 0x1D2 PUSH2 0xCB4 JUMP JUMPDEST PUSH1 0x40 MLOAD PUSH2 0x1E0 SWAP3 SWAP2 SWAP1 PUSH2 0x16BB JUMP JUMPDEST PUSH1 0x40 MLOAD DUP1 SWAP2 SUB SWAP1 RETURN JUMPDEST PUSH2 0x1F1 PUSH2 0xF93 JUMP JUMPDEST PUSH1 0x40 MLOAD PUSH2 0x1FE SWAP2 SWAP1 PUSH2 0x15CB JUMP JUMPDEST PUSH1 0x40 MLOAD DUP1 SWAP2 SUB SWAP1 RETURN JUMPDEST PUSH2 0x20F PUSH2 0xF99 JUMP JUMPDEST PUSH1 0x40 MLOAD PUSH2 0x21C SWAP2 SWAP1 PUSH2 0x16F8 JUMP JUMPDEST PUSH1 0x40 MLOAD DUP1 SWAP2 SUB SWAP1 RETURN JUMPDEST PUSH2 0x22D PUSH2 0xFBD JUMP JUMPDEST STOP JUMPDEST PUSH0 PUSH1 0x14 SWAP1 SLOAD SWAP1 PUSH2 0x100 EXP SWAP1 DIV PUSH1 0xFF AND PUSH2 0x27D JUMPI PUSH1 0x40 MLOAD PUSH32 0x8C379A000000000000000000000000000000000000000000000000000000000 DUP2 MSTORE PUSH1 0x4 ADD PUSH2 0x274 SWAP1 PUSH2 0x175B JUMP JUMPDEST PUSH1 0x40 MLOAD DUP1 SWAP2 SUB SWAP1 REVERT JUMPDEST PUSH1 0x4 PUSH0 PUSH1 0x1 SLOAD DUP2 MSTORE PUSH1 0x20 ADD SWAP1 DUP2 MSTORE PUSH1 0x20 ADD PUSH0 KECCAK256 PUSH0 CALLER PUSH20 0xFFFFFFFFFFFFFFFFFFFFFFFFFFFFFFFFFFFFFFFF AND PUSH20 0xFFFFFFFFFFFFFFFFFFFFFFFFFFFFFFFFFFFFFFFF AND DUP2 MSTORE PUSH1 0x20 ADD SWAP1 DUP2 MSTORE PUSH1 0x20 ADD PUSH0 KECCAK256 PUSH0 SWAP1 SLOAD SWAP1 PUSH2 0x100 EXP SWAP1 DIV PUSH1 0xFF AND ISZERO PUSH2 0x318 JUMPI PUSH1 0x40 MLOAD PUSH32 0x8C379A000000000000000000000000000000000000000000000000000000000 DUP2 MSTORE PUSH1 0x4 ADD PUSH2 0x30F SWAP1 PUSH2 0x17C3 JUMP JUMPDEST PUSH1 0x40 MLOAD DUP1 SWAP2 SUB SWAP1 REVERT JUMPDEST PUSH0 DUP2 GT DUP1 ISZERO PUSH2 0x33A JUMPI POP PUSH1 0x3 PUSH0 PUSH1 0x1 SLOAD DUP2 MSTORE PUSH1 0x20 ADD SWAP1 DUP2 MSTORE PUSH1 0x20 ADD PUSH0 KECCAK256 SLOAD DUP2 GT ISZERO JUMPDEST PUSH2 0x379 JUMPI PUSH1 0x40 MLOAD PUSH32 0x8C379A000000000000000000000000000000000000000000000000000000000 DUP2 MSTORE PUSH1 0x4 ADD PUSH2 0x370 SWAP1 PUSH2 0x182B JUMP JUMPDEST PUSH1 0x40 MLOAD DUP1 SWAP2 SUB SWAP1 REVERT JUMPDEST PUSH1 0x1 PUSH1 0x4 PUSH0 PUSH1 0x1 SLOAD DUP2 MSTORE PUSH1 0x20 ADD SWAP1 DUP2 MSTORE PUSH1 0x20 ADD PUSH0 KECCAK256 PUSH0 CALLER PUSH20 0xFFFFFFFFFFFFFFFFFFFFFFFFFFFFFFFFFFFFFFFF AND PUSH20 0xFFFFFFFFFFFFFFFFFFFFFFFFFFFFFFFFFFFFFFFF AND DUP2 MSTORE PUSH1 0x20 ADD SWAP1 DUP2 MSTORE PUSH1 0x20 ADD PUSH0 KECCAK256 PUSH0 PUSH2 0x100 EXP DUP2 SLOAD DUP2 PUSH1 0xFF MUL NOT AND SWAP1 DUP4 ISZERO ISZERO MUL OR SWAP1 SSTORE POP PUSH1 0x2 PUSH0 PUSH1 0x1 SLOAD DUP2 MSTORE PUSH1 0x20 ADD SWAP1 DUP2 MSTORE PUSH1 0x20 ADD PUSH0 KECCAK256 PUSH0 DUP3 DUP2 MSTORE PUSH1 0x20 ADD SWAP1 DUP2 MSTORE PUSH1 0x20 ADD PUSH0 KECCAK256 PUSH1 0x3 ADD PUSH0 DUP2 SLOAD DUP1 SWAP3 SWAP2 SWAP1 PUSH2 0x414 SWAP1 PUSH2 0x1876 JUMP JUMPDEST SWAP2 SWAP1 POP SSTORE POP PUSH32 0xE7EE74CA1F4BB1B82B14F87794C45B3E59C39E372B862FB97A6316B43355B69E PUSH1 0x1 SLOAD CALLER DUP4 PUSH1 0x40 MLOAD PUSH2 0x44E SWAP4 SWAP3 SWAP2 SWAP1 PUSH2 0x18BD JUMP JUMPDEST PUSH1 0x40 MLOAD DUP1 SWAP2 SUB SWAP1 LOG1 POP JUMP JUMPDEST PUSH0 PUSH0 SWAP1 SLOAD SWAP1 PUSH2 0x100 EXP SWAP1 DIV PUSH20 0xFFFFFFFFFFFFFFFFFFFFFFFFFFFFFFFFFFFFFFFF AND PUSH20 0xFFFFFFFFFFFFFFFFFFFFFFFFFFFFFFFFFFFFFFFF AND CALLER PUSH20 0xFFFFFFFFFFFFFFFFFFFFFFFFFFFFFFFFFFFFFFFF AND EQ PUSH2 0x4E7 JUMPI PUSH1 0x40 MLOAD PUSH32 0x8C379A000000000000000000000000000000000000000000000000000000000 DUP2 MSTORE PUSH1 0x4 ADD PUSH2 0x4DE SWAP1 PUSH2 0x193C JUMP JUMPDEST PUSH1 0x40 MLOAD DUP1 SWAP2 SUB SWAP1 REVERT JUMPDEST PUSH0 PUSH1 0x1 SLOAD GT PUSH2 0x52B JUMPI PUSH1 0x40 MLOAD PUSH32 0x8C379A000000000000000000000000000000000000000000000000000000000 DUP2 MSTORE PUSH1 0x4 ADD PUSH2 0x522 SWAP1 PUSH2 0x19A4 JUMP JUMPDEST PUSH1 0x40 MLOAD DUP1 SWAP2 SUB SWAP1 REVERT JUMPDEST PUSH0 PUSH1 0x14 SWAP1 SLOAD SWAP1 PUSH2 0x100 EXP SWAP1 DIV PUSH1 0xFF AND PUSH2 0x579 JUMPI PUSH1 0x40 MLOAD PUSH32 0x8C379A000000000000000000000000000000000000000000000000000000000 DUP2 MSTORE PUSH1 0x4 ADD PUSH2 0x570 SWAP1 PUSH2 0x1A32 JUMP JUMPDEST PUSH1 0x40 MLOAD DUP1 SWAP2 SUB SWAP1 REVERT JUMPDEST PUSH0 PUSH1 0x3 PUSH0 PUSH1 0x1 SLOAD DUP2 MSTORE PUSH1 0x20 ADD SWAP1 DUP2 MSTORE PUSH1 0x20 ADD PUSH0 KECCAK256 SLOAD SWAP1 POP DUP1 DUP1 PUSH2 0x59B SWAP1 PUSH2 0x1876 JUMP JUMPDEST SWAP2 POP POP PUSH1 0x40 MLOAD DUP1 PUSH1 0x80 ADD PUSH1 0x40 MSTORE DUP1 DUP3 DUP2 MSTORE PUSH1 0x20 ADD DUP5 DUP2 MSTORE PUSH1 0x20 ADD DUP4 DUP2 MSTORE PUSH1 0x20 ADD PUSH0 DUP2 MSTORE POP PUSH1 0x2 PUSH0 PUSH1 0x1 SLOAD DUP2 MSTORE PUSH1 0x20 ADD SWAP1 DUP2 MSTORE PUSH1 0x20 ADD PUSH0 KECCAK256 PUSH0 DUP4 DUP2 MSTORE PUSH1 0x20 ADD SWAP1 DUP2 MSTORE PUSH1 0x20 ADD PUSH0 KECCAK256 PUSH0 DUP3 ADD MLOAD DUP2 PUSH0 ADD SSTORE PUSH1 0x20 DUP3 ADD MLOAD DUP2 PUSH1 0x1 ADD SWAP1 DUP2 PUSH2 0x5FE SWAP2 SWAP1 PUSH2 0x1C4D JUMP JUMPDEST POP PUSH1 0x40 DUP3 ADD MLOAD DUP2 PUSH1 0x2 ADD SWAP1 DUP2 PUSH2 0x614 SWAP2 SWAP1 PUSH2 0x1C4D JUMP JUMPDEST POP PUSH1 0x60 DUP3 ADD MLOAD DUP2 PUSH1 0x3 ADD SSTORE SWAP1 POP POP DUP1 PUSH1 0x3 PUSH0 PUSH1 0x1 SLOAD DUP2 MSTORE PUSH1 0x20 ADD SWAP1 DUP2 MSTORE PUSH1 0x20 ADD PUSH0 KECCAK256 DUP2 SWAP1 SSTORE POP PUSH32 0x96B6E1D9AF8279DE0AE4D01600BCAE708BDB292C4A8F8F150AFF92F5CAF56A42 PUSH1 0x1 SLOAD DUP5 PUSH1 0x40 MLOAD PUSH2 0x66D SWAP3 SWAP2 SWAP1 PUSH2 0x1D1C JUMP JUMPDEST PUSH1 0x40 MLOAD DUP1 SWAP2 SUB SWAP1 LOG1 POP POP POP JUMP JUMPDEST PUSH0 PUSH1 0x14 SWAP1 SLOAD SWAP1 PUSH2 0x100 EXP SWAP1 DIV PUSH1 0xFF AND DUP2 JUMP JUMPDEST PUSH1 0x4 PUSH1 0x20 MSTORE DUP2 PUSH0 MSTORE PUSH1 0x40 PUSH0 KECCAK256 PUSH1 0x20 MSTORE DUP1 PUSH0 MSTORE PUSH1 0x40 PUSH0 KECCAK256 PUSH0 SWAP2 POP SWAP2 POP SWAP1 SLOAD SWAP1 PUSH2 0x100 EXP SWAP1 DIV PUSH1 0xFF AND DUP2 JUMP JUMPDEST PUSH1 0x60 DUP1 PUSH1 0x60 DUP1 PUSH0 PUSH1 0x3 PUSH0 PUSH1 0x1 SLOAD DUP2 MSTORE PUSH1 0x20 ADD SWAP1 DUP2 MSTORE PUSH1 0x20 ADD PUSH0 KECCAK256 SLOAD SWAP1 POP PUSH0 DUP2 PUSH8 0xFFFFFFFFFFFFFFFF DUP2 GT ISZERO PUSH2 0x6EE JUMPI PUSH2 0x6ED PUSH2 0x1126 JUMP JUMPDEST JUMPDEST PUSH1 0x40 MLOAD SWAP1 DUP1 DUP3 MSTORE DUP1 PUSH1 0x20 MUL PUSH1 0x20 ADD DUP3 ADD PUSH1 0x40 MSTORE DUP1 ISZERO PUSH2 0x71C JUMPI DUP2 PUSH1 0x20 ADD PUSH1 0x20 DUP3 MUL DUP1 CALLDATASIZE DUP4 CALLDATACOPY DUP1 DUP3 ADD SWAP2 POP POP SWAP1 POP JUMPDEST POP SWAP1 POP PUSH0 DUP3 PUSH8 0xFFFFFFFFFFFFFFFF DUP2 GT ISZERO PUSH2 0x73A JUMPI PUSH2 0x739 PUSH2 0x1126 JUMP JUMPDEST JUMPDEST PUSH1 0x40 MLOAD SWAP1 DUP1 DUP3 MSTORE DUP1 PUSH1 0x20 MUL PUSH1 0x20 ADD DUP3 ADD PUSH1 0x40 MSTORE DUP1 ISZERO PUSH2 0x76D JUMPI DUP2 PUSH1 0x20 ADD JUMPDEST PUSH1 0x60 DUP2 MSTORE PUSH1 0x20 ADD SWAP1 PUSH1 0x1 SWAP1 SUB SWAP1 DUP2 PUSH2 0x758 JUMPI SWAP1 POP JUMPDEST POP SWAP1 POP PUSH0 DUP4 PUSH8 0xFFFFFFFFFFFFFFFF DUP2 GT ISZERO PUSH2 0x78B JUMPI PUSH2 0x78A PUSH2 0x1126 JUMP JUMPDEST JUMPDEST PUSH1 0x40 MLOAD SWAP1 DUP1 DUP3 MSTORE DUP1 PUSH1 0x20 MUL PUSH1 0x20 ADD DUP3 ADD PUSH1 0x40 MSTORE DUP1 ISZERO PUSH2 0x7BE JUMPI DUP2 PUSH1 0x20 ADD JUMPDEST PUSH1 0x60 DUP2 MSTORE PUSH1 0x20 ADD SWAP1 PUSH1 0x1 SWAP1 SUB SWAP1 DUP2 PUSH2 0x7A9 JUMPI SWAP1 POP JUMPDEST POP SWAP1 POP PUSH0 DUP5 PUSH8 0xFFFFFFFFFFFFFFFF DUP2 GT ISZERO PUSH2 0x7DC JUMPI PUSH2 0x7DB PUSH2 0x1126 JUMP JUMPDEST JUMPDEST PUSH1 0x40 MLOAD SWAP1 DUP1 DUP3 MSTORE DUP1 PUSH1 0x20 MUL PUSH1 0x20 ADD DUP3 ADD PUSH1 0x40 MSTORE DUP1 ISZERO PUSH2 0x80A JUMPI DUP2 PUSH1 0x20 ADD PUSH1 0x20 DUP3 MUL DUP1 CALLDATASIZE DUP4 CALLDATACOPY DUP1 DUP3 ADD SWAP2 POP POP SWAP1 POP JUMPDEST POP SWAP1 POP PUSH0 PUSH1 0x1 SWAP1 POP JUMPDEST DUP6 DUP2 GT PUSH2 0xA1C JUMPI PUSH0 PUSH1 0x2 PUSH0 PUSH1 0x1 SLOAD DUP2 MSTORE PUSH1 0x20 ADD SWAP1 DUP2 MSTORE PUSH1 0x20 ADD PUSH0 KECCAK256 PUSH0 DUP4 DUP2 MSTORE PUSH1 0x20 ADD SWAP1 DUP2 MSTORE PUSH1 0x20 ADD PUSH0 KECCAK256 SWAP1 POP DUP1 PUSH0 ADD SLOAD DUP7 PUSH1 0x1 DUP5 PUSH2 0x851 SWAP2 SWAP1 PUSH2 0x1D4A JUMP JUMPDEST DUP2 MLOAD DUP2 LT PUSH2 0x862 JUMPI PUSH2 0x861 PUSH2 0x1D7D JUMP JUMPDEST JUMPDEST PUSH1 0x20 MUL PUSH1 0x20 ADD ADD DUP2 DUP2 MSTORE POP POP DUP1 PUSH1 0x1 ADD DUP1 SLOAD PUSH2 0x87D SWAP1 PUSH2 0x1A7D JUMP JUMPDEST DUP1 PUSH1 0x1F ADD PUSH1 0x20 DUP1 SWAP2 DIV MUL PUSH1 0x20 ADD PUSH1 0x40 MLOAD SWAP1 DUP2 ADD PUSH1 0x40 MSTORE DUP1 SWAP3 SWAP2 SWAP1 DUP2 DUP2 MSTORE PUSH1 0x20 ADD DUP3 DUP1 SLOAD PUSH2 0x8A9 SWAP1 PUSH2 0x1A7D JUMP JUMPDEST DUP1 ISZERO PUSH2 0x8F4 JUMPI DUP1 PUSH1 0x1F LT PUSH2 0x8CB JUMPI PUSH2 0x100 DUP1 DUP4 SLOAD DIV MUL DUP4 MSTORE SWAP2 PUSH1 0x20 ADD SWAP2 PUSH2 0x8F4 JUMP JUMPDEST DUP3 ADD SWAP2 SWAP1 PUSH0 MSTORE PUSH1 0x20 PUSH0 KECCAK256 SWAP1 JUMPDEST DUP2 SLOAD DUP2 MSTORE SWAP1 PUSH1 0x1 ADD SWAP1 PUSH1 0x20 ADD DUP1 DUP4 GT PUSH2 0x8D7 JUMPI DUP3 SWAP1 SUB PUSH1 0x1F AND DUP3 ADD SWAP2 JUMPDEST POP POP POP POP POP DUP6 PUSH1 0x1 DUP5 PUSH2 0x907 SWAP2 SWAP1 PUSH2 0x1D4A JUMP JUMPDEST DUP2 MLOAD DUP2 LT PUSH2 0x918 JUMPI PUSH2 0x917 PUSH2 0x1D7D JUMP JUMPDEST JUMPDEST PUSH1 0x20 MUL PUSH1 0x20 ADD ADD DUP2 SWAP1 MSTORE POP DUP1 PUSH1 0x2 ADD DUP1 SLOAD PUSH2 0x932 SWAP1 PUSH2 0x1A7D JUMP JUMPDEST DUP1 PUSH1 0x1F ADD PUSH1 0x20 DUP1 SWAP2 DIV MUL PUSH1 0x20 ADD PUSH1 0x40 MLOAD SWAP1 DUP2 ADD PUSH1 0x40 MSTORE DUP1 SWAP3 SWAP2 SWAP1 DUP2 DUP2 MSTORE PUSH1 0x20 ADD DUP3 DUP1 SLOAD PUSH2 0x95E SWAP1 PUSH2 0x1A7D JUMP JUMPDEST DUP1 ISZERO PUSH2 0x9A9 JUMPI DUP1 PUSH1 0x1F LT PUSH2 0x980 JUMPI PUSH2 0x100 DUP1 DUP4 SLOAD DIV MUL DUP4 MSTORE SWAP2 PUSH1 0x20 ADD SWAP2 PUSH2 0x9A9 JUMP JUMPDEST DUP3 ADD SWAP2 SWAP1 PUSH0 MSTORE PUSH1 0x20 PUSH0 KECCAK256 SWAP1 JUMPDEST DUP2 SLOAD DUP2 MSTORE SWAP1 PUSH1 0x1 ADD SWAP1 PUSH1 0x20 ADD DUP1 DUP4 GT PUSH2 0x98C JUMPI DUP3 SWAP1 SUB PUSH1 0x1F AND DUP3 ADD SWAP2 JUMPDEST POP POP POP POP POP DUP5 PUSH1 0x1 DUP5 PUSH2 0x9BC SWAP2 SWAP1 PUSH2 0x1D4A JUMP JUMPDEST DUP2 MLOAD DUP2 LT PUSH2 0x9CD JUMPI PUSH2 0x9CC PUSH2 0x1D7D JUMP JUMPDEST JUMPDEST PUSH1 0x20 MUL PUSH1 0x20 ADD ADD DUP2 SWAP1 MSTORE POP DUP1 PUSH1 0x3 ADD SLOAD DUP4 PUSH1 0x1 DUP5 PUSH2 0x9EB SWAP2 SWAP1 PUSH2 0x1D4A JUMP JUMPDEST DUP2 MLOAD DUP2 LT PUSH2 0x9FC JUMPI PUSH2 0x9FB PUSH2 0x1D7D JUMP JUMPDEST JUMPDEST PUSH1 0x20 MUL PUSH1 0x20 ADD ADD DUP2 DUP2 MSTORE POP POP POP DUP1 DUP1 PUSH2 0xA14 SWAP1 PUSH2 0x1876 JUMP JUMPDEST SWAP2 POP POP PUSH2 0x813 JUMP JUMPDEST POP DUP4 DUP4 DUP4 DUP4 SWAP9 POP SWAP9 POP SWAP9 POP SWAP9 POP POP POP POP POP POP SWAP1 SWAP2 SWAP3 SWAP4 JUMP JUMPDEST PUSH0 PUSH0 SWAP1 SLOAD SWAP1 PUSH2 0x100 EXP SWAP1 DIV PUSH20 0xFFFFFFFFFFFFFFFFFFFFFFFFFFFFFFFFFFFFFFFF AND PUSH20 0xFFFFFFFFFFFFFFFFFFFFFFFFFFFFFFFFFFFFFFFF AND CALLER PUSH20 0xFFFFFFFFFFFFFFFFFFFFFFFFFFFFFFFFFFFFFFFF AND EQ PUSH2 0xAC2 JUMPI PUSH1 0x40 MLOAD PUSH32 0x8C379A000000000000000000000000000000000000000000000000000000000 DUP2 MSTORE PUSH1 0x4 ADD PUSH2 0xAB9 SWAP1 PUSH2 0x193C JUMP JUMPDEST PUSH1 0x40 MLOAD DUP1 SWAP2 SUB SWAP1 REVERT JUMPDEST PUSH0 PUSH1 0x14 SWAP1 SLOAD SWAP1 PUSH2 0x100 EXP SWAP1 DIV PUSH1 0xFF AND ISZERO PUSH2 0xAF0 JUMPI PUSH0 PUSH0 PUSH1 0x14 PUSH2 0x100 EXP DUP2 SLOAD DUP2 PUSH1 0xFF MUL NOT AND SWAP1 DUP4 ISZERO ISZERO MUL OR SWAP1 SSTORE POP JUMPDEST PUSH1 0x1 PUSH0 DUP2 SLOAD DUP1 SWAP3 SWAP2 SWAP1 PUSH2 0xB02 SWAP1 PUSH2 0x1876 JUMP JUMPDEST SWAP2 SWAP1 POP SSTORE POP PUSH1 0x1 PUSH0 PUSH1 0x14 PUSH2 0x100 EXP DUP2 SLOAD DUP2 PUSH1 0xFF MUL NOT AND SWAP1 DUP4 ISZERO ISZERO MUL OR SWAP1 SSTORE POP PUSH32 0x159EEE87222A0489C529F2153C26AD65D718F2CC33EBAA8D399D1DD5B39FACAA PUSH1 0x1 SLOAD PUSH1 0x40 MLOAD PUSH2 0xB52 SWAP2 SWAP1 PUSH2 0x15CB JUMP JUMPDEST PUSH1 0x40 MLOAD DUP1 SWAP2 SUB SWAP1 LOG1 JUMP JUMPDEST PUSH1 0x3 PUSH1 0x20 MSTORE DUP1 PUSH0 MSTORE PUSH1 0x40 PUSH0 KECCAK256 PUSH0 SWAP2 POP SWAP1 POP SLOAD DUP2 JUMP JUMPDEST PUSH1 0x2 PUSH1 0x20 MSTORE DUP2 PUSH0 MSTORE PUSH1 0x40 PUSH0 KECCAK256 PUSH1 0x20 MSTORE DUP1 PUSH0 MSTORE PUSH1 0x40 PUSH0 KECCAK256 PUSH0 SWAP2 POP SWAP2 POP POP DUP1 PUSH0 ADD SLOAD SWAP1 DUP1 PUSH1 0x1 ADD DUP1 SLOAD PUSH2 0xBA1 SWAP1 PUSH2 0x1A7D JUMP JUMPDEST DUP1 PUSH1 0x1F ADD PUSH1 0x20 DUP1 SWAP2 DIV MUL PUSH1 0x20 ADD PUSH1 0x40 MLOAD SWAP1 DUP2 ADD PUSH1 0x40 MSTORE DUP1 SWAP3 SWAP2 SWAP1 DUP2 DUP2 MSTORE PUSH1 0x20 ADD DUP3 DUP1 SLOAD PUSH2 0xBCD SWAP1 PUSH2 0x1A7D JUMP JUMPDEST DUP1 ISZERO PUSH2 0xC18 JUMPI DUP1 PUSH1 0x1F LT PUSH2 0xBEF JUMPI PUSH2 0x100 DUP1 DUP4 SLOAD DIV MUL DUP4 MSTORE SWAP2 PUSH1 0x20 ADD SWAP2 PUSH2 0xC18 JUMP JUMPDEST DUP3 ADD SWAP2 SWAP1 PUSH0 MSTORE PUSH1 0x20 PUSH0 KECCAK256 SWAP1 JUMPDEST DUP2 SLOAD DUP2 MSTORE SWAP1 PUSH1 0x1 ADD SWAP1 PUSH1 0x20 ADD DUP1 DUP4 GT PUSH2 0xBFB JUMPI DUP3 SWAP1 SUB PUSH1 0x1F AND DUP3 ADD SWAP2 JUMPDEST POP POP POP POP POP SWAP1 DUP1 PUSH1 0x2 ADD DUP1 SLOAD PUSH2 0xC2D SWAP1 PUSH2 0x1A7D JUMP JUMPDEST DUP1 PUSH1 0x1F ADD PUSH1 0x20 DUP1 SWAP2 DIV MUL PUSH1 0x20 ADD PUSH1 0x40 MLOAD SWAP1 DUP2 ADD PUSH1 0x40 MSTORE DUP1 SWAP3 SWAP2 SWAP1 DUP2 DUP2 MSTORE PUSH1 0x20 ADD DUP3 DUP1 SLOAD PUSH2 0xC59 SWAP1 PUSH2 0x1A7D JUMP JUMPDEST DUP1 ISZERO PUSH2 0xCA4 JUMPI DUP1 PUSH1 0x1F LT PUSH2 0xC7B JUMPI PUSH2 0x100 DUP1 DUP4 SLOAD DIV MUL DUP4 MSTORE SWAP2 PUSH1 0x20 ADD SWAP2 PUSH2 0xCA4 JUMP JUMPDEST DUP3 ADD SWAP2 SWAP1 PUSH0 MSTORE PUSH1 0x20 PUSH0 KECCAK256 SWAP1 JUMPDEST DUP2 SLOAD DUP2 MSTORE SWAP1 PUSH1 0x1 ADD SWAP1 PUSH1 0x20 ADD DUP1 DUP4 GT PUSH2 0xC87 JUMPI DUP3 SWAP1 SUB PUSH1 0x1F AND DUP3 ADD SWAP2 JUMPDEST POP POP POP POP POP SWAP1 DUP1 PUSH1 0x3 ADD SLOAD SWAP1 POP DUP5 JUMP JUMPDEST PUSH1 0x60 PUSH0 PUSH0 PUSH0 SWAP1 POP PUSH0 PUSH1 0x3 PUSH0 PUSH1 0x1 SLOAD DUP2 MSTORE PUSH1 0x20 ADD SWAP1 DUP2 MSTORE PUSH1 0x20 ADD PUSH0 KECCAK256 SLOAD SWAP1 POP PUSH0 DUP2 SUB PUSH2 0xD33 JUMPI PUSH0 PUSH8 0xFFFFFFFFFFFFFFFF DUP2 GT ISZERO PUSH2 0xCF3 JUMPI PUSH2 0xCF2 PUSH2 0x1126 JUMP JUMPDEST JUMPDEST PUSH1 0x40 MLOAD SWAP1 DUP1 DUP3 MSTORE DUP1 PUSH1 0x20 MUL PUSH1 0x20 ADD DUP3 ADD PUSH1 0x40 MSTORE DUP1 ISZERO PUSH2 0xD26 JUMPI DUP2 PUSH1 0x20 ADD JUMPDEST PUSH1 0x60 DUP2 MSTORE PUSH1 0x20 ADD SWAP1 PUSH1 0x1 SWAP1 SUB SWAP1 DUP2 PUSH2 0xD11 JUMPI SWAP1 POP JUMPDEST POP PUSH0 SWAP4 POP SWAP4 POP POP POP PUSH2 0xF8F JUMP JUMPDEST PUSH0 PUSH1 0x1 SWAP1 POP JUMPDEST DUP2 DUP2 GT PUSH2 0xDA9 JUMPI DUP3 PUSH1 0x2 PUSH0 PUSH1 0x1 SLOAD DUP2 MSTORE PUSH1 0x20 ADD SWAP1 DUP2 MSTORE PUSH1 0x20 ADD PUSH0 KECCAK256 PUSH0 DUP4 DUP2 MSTORE PUSH1 0x20 ADD SWAP1 DUP2 MSTORE PUSH1 0x20 ADD PUSH0 KECCAK256 PUSH1 0x3 ADD SLOAD GT ISZERO PUSH2 0xD96 JUMPI PUSH1 0x2 PUSH0 PUSH1 0x1 SLOAD DUP2 MSTORE PUSH1 0x20 ADD SWAP1 DUP2 MSTORE PUSH1 0x20 ADD PUSH0 KECCAK256 PUSH0 DUP3 DUP2 MSTORE PUSH1 0x20 ADD SWAP1 DUP2 MSTORE PUSH1 0x20 ADD PUSH0 KECCAK256 PUSH1 0x3 ADD SLOAD SWAP3 POP JUMPDEST DUP1 DUP1 PUSH2 0xDA1 SWAP1 PUSH2 0x1876 JUMP JUMPDEST SWAP2 POP POP PUSH2 0xD39 JUMP JUMPDEST POP PUSH0 PUSH0 SWAP1 POP PUSH0 PUSH1 0x1 SWAP1 POP JUMPDEST DUP3 DUP2 GT PUSH2 0xE09 JUMPI DUP4 PUSH1 0x2 PUSH0 PUSH1 0x1 SLOAD DUP2 MSTORE PUSH1 0x20 ADD SWAP1 DUP2 MSTORE PUSH1 0x20 ADD PUSH0 KECCAK256 PUSH0 DUP4 DUP2 MSTORE PUSH1 0x20 ADD SWAP1 DUP2 MSTORE PUSH1 0x20 ADD PUSH0 KECCAK256 PUSH1 0x3 ADD SLOAD SUB PUSH2 0xDF6 JUMPI DUP2 DUP1 PUSH2 0xDF2 SWAP1 PUSH2 0x1876 JUMP JUMPDEST SWAP3 POP POP JUMPDEST DUP1 DUP1 PUSH2 0xE01 SWAP1 PUSH2 0x1876 JUMP JUMPDEST SWAP2 POP POP PUSH2 0xDB4 JUMP JUMPDEST POP DUP1 PUSH8 0xFFFFFFFFFFFFFFFF DUP2 GT ISZERO PUSH2 0xE24 JUMPI PUSH2 0xE23 PUSH2 0x1126 JUMP JUMPDEST JUMPDEST PUSH1 0x40 MLOAD SWAP1 DUP1 DUP3 MSTORE DUP1 PUSH1 0x20 MUL PUSH1 0x20 ADD DUP3 ADD PUSH1 0x40 MSTORE DUP1 ISZERO PUSH2 0xE57 JUMPI DUP2 PUSH1 0x20 ADD JUMPDEST PUSH1 0x60 DUP2 MSTORE PUSH1 0x20 ADD SWAP1 PUSH1 0x1 SWAP1 SUB SWAP1 DUP2 PUSH2 0xE42 JUMPI SWAP1 POP JUMPDEST POP SWAP5 POP PUSH0 PUSH0 SWAP1 POP PUSH0 PUSH1 0x1 SWAP1 POP JUMPDEST DUP4 DUP2 GT PUSH2 0xF83 JUMPI DUP5 PUSH1 0x2 PUSH0 PUSH1 0x1 SLOAD DUP2 MSTORE PUSH1 0x20 ADD SWAP1 DUP2 MSTORE PUSH1 0x20 ADD PUSH0 KECCAK256 PUSH0 DUP4 DUP2 MSTORE PUSH1 0x20 ADD SWAP1 DUP2 MSTORE PUSH1 0x20 ADD PUSH0 KECCAK256 PUSH1 0x3 ADD SLOAD SUB PUSH2 0xF70 JUMPI PUSH1 0x2 PUSH0 PUSH1 0x1 SLOAD DUP2 MSTORE PUSH1 0x20 ADD SWAP1 DUP2 MSTORE PUSH1 0x20 ADD PUSH0 KECCAK256 PUSH0 DUP3 DUP2 MSTORE PUSH1 0x20 ADD SWAP1 DUP2 MSTORE PUSH1 0x20 ADD PUSH0 KECCAK256 PUSH1 0x1 ADD DUP1 SLOAD PUSH2 0xEC7 SWAP1 PUSH2 0x1A7D JUMP JUMPDEST DUP1 PUSH1 0x1F ADD PUSH1 0x20 DUP1 SWAP2 DIV MUL PUSH1 0x20 ADD PUSH1 0x40 MLOAD SWAP1 DUP2 ADD PUSH1 0x40 MSTORE DUP1 SWAP3 SWAP2 SWAP1 DUP2 DUP2 MSTORE PUSH1 0x20 ADD DUP3 DUP1 SLOAD PUSH2 0xEF3 SWAP1 PUSH2 0x1A7D JUMP JUMPDEST DUP1 ISZERO PUSH2 0xF3E JUMPI DUP1 PUSH1 0x1F LT PUSH2 0xF15 JUMPI PUSH2 0x100 DUP1 DUP4 SLOAD DIV MUL DUP4 MSTORE SWAP2 PUSH1 0x20 ADD SWAP2 PUSH2 0xF3E JUMP JUMPDEST DUP3 ADD SWAP2 SWAP1 PUSH0 MSTORE PUSH1 0x20 PUSH0 KECCAK256 SWAP1 JUMPDEST DUP2 SLOAD DUP2 MSTORE SWAP1 PUSH1 0x1 ADD SWAP1 PUSH1 0x20 ADD DUP1 DUP4 GT PUSH2 0xF21 JUMPI DUP3 SWAP1 SUB PUSH1 0x1F AND DUP3 ADD SWAP2 JUMPDEST POP POP POP POP POP DUP8 DUP4 DUP2 MLOAD DUP2 LT PUSH2 0xF56 JUMPI PUSH2 0xF55 PUSH2 0x1D7D JUMP JUMPDEST JUMPDEST PUSH1 0x20 MUL PUSH1 0x20 ADD ADD DUP2 SWAP1 MSTORE POP DUP2 DUP1 PUSH2 0xF6C SWAP1 PUSH2 0x1876 JUMP JUMPDEST SWAP3 POP POP JUMPDEST DUP1 DUP1 PUSH2 0xF7B SWAP1 PUSH2 0x1876 JUMP JUMPDEST SWAP2 POP POP PUSH2 0xE64 JUMP JUMPDEST POP DUP6 DUP5 SWAP6 POP SWAP6 POP POP POP POP POP JUMPDEST SWAP1 SWAP2 JUMP JUMPDEST PUSH1 0x1 SLOAD DUP2 JUMP JUMPDEST PUSH0 PUSH0 SWAP1 SLOAD SWAP1 PUSH2 0x100 EXP SWAP1 DIV PUSH20 0xFFFFFFFFFFFFFFFFFFFFFFFFFFFFFFFFFFFFFFFF AND DUP2 JUMP JUMPDEST PUSH0 PUSH0 SWAP1 SLOAD SWAP1 PUSH2 0x100 EXP SWAP1 DIV PUSH20 0xFFFFFFFFFFFFFFFFFFFFFFFFFFFFFFFFFFFFFFFF AND PUSH20 0xFFFFFFFFFFFFFFFFFFFFFFFFFFFFFFFFFFFFFFFF AND CALLER PUSH20 0xFFFFFFFFFFFFFFFFFFFFFFFFFFFFFFFFFFFFFFFF AND EQ PUSH2 0x104B JUMPI PUSH1 0x40 MLOAD PUSH32 0x8C379A000000000000000000000000000000000000000000000000000000000 DUP2 MSTORE PUSH1 0x4 ADD PUSH2 0x1042 SWAP1 PUSH2 0x193C JUMP JUMPDEST PUSH1 0x40 MLOAD DUP1 SWAP2 SUB SWAP1 REVERT JUMPDEST PUSH0 PUSH0 PUSH1 0x14 PUSH2 0x100 EXP DUP2 SLOAD DUP2 PUSH1 0xFF MUL NOT AND SWAP1 DUP4 ISZERO ISZERO MUL OR SWAP1 SSTORE POP PUSH32 0x3CD57EC51C1CD733D39D31A11697FA24455FF7096632417016BB8D84C882D60B PUSH1 0x1 SLOAD PUSH1 0x40 MLOAD PUSH2 0x1095 SWAP2 SWAP1 PUSH2 0x15CB JUMP JUMPDEST PUSH1 0x40 MLOAD DUP1 SWAP2 SUB SWAP1 LOG1 JUMP JUMPDEST PUSH0 PUSH1 0x40 MLOAD SWAP1 POP SWAP1 JUMP JUMPDEST PUSH0 PUSH0 REVERT JUMPDEST PUSH0 PUSH0 REVERT JUMPDEST PUSH0 DUP2 SWAP1 POP SWAP2 SWAP1 POP JUMP JUMPDEST PUSH2 0x10C2 DUP2 PUSH2 0x10B0 JUMP JUMPDEST DUP2 EQ PUSH2 0x10CC JUMPI PUSH0 PUSH0 REVERT JUMPDEST POP JUMP JUMPDEST PUSH0 DUP2 CALLDATALOAD SWAP1 POP PUSH2 0x10DD DUP2 PUSH2 0x10B9 JUMP JUMPDEST SWAP3 SWAP2 POP POP JUMP JUMPDEST PUSH0 PUSH1 0x20 DUP3 DUP5 SUB SLT ISZERO PUSH2 0x10F8 JUMPI PUSH2 0x10F7 PUSH2 0x10A8 JUMP JUMPDEST JUMPDEST PUSH0 PUSH2 0x1105 DUP5 DUP3 DUP6 ADD PUSH2 0x10CF JUMP JUMPDEST SWAP2 POP POP SWAP3 SWAP2 POP POP JUMP JUMPDEST PUSH0 PUSH0 REVERT JUMPDEST PUSH0 PUSH0 REVERT JUMPDEST PUSH0 PUSH1 0x1F NOT PUSH1 0x1F DUP4 ADD AND SWAP1 POP SWAP2 SWAP1 POP JUMP JUMPDEST PUSH32 0x4E487B7100000000000000000000000000000000000000000000000000000000 PUSH0 MSTORE PUSH1 0x41 PUSH1 0x4 MSTORE PUSH1 0x24 PUSH0 REVERT JUMPDEST PUSH2 0x115C DUP3 PUSH2 0x1116 JUMP JUMPDEST DUP2 ADD DUP2 DUP2 LT PUSH8 0xFFFFFFFFFFFFFFFF DUP3 GT OR ISZERO PUSH2 0x117B JUMPI PUSH2 0x117A PUSH2 0x1126 JUMP JUMPDEST JUMPDEST DUP1 PUSH1 0x40 MSTORE POP POP POP JUMP JUMPDEST PUSH0 PUSH2 0x118D PUSH2 0x109F JUMP JUMPDEST SWAP1 POP PUSH2 0x1199 DUP3 DUP3 PUSH2 0x1153 JUMP JUMPDEST SWAP2 SWAP1 POP JUMP JUMPDEST PUSH0 PUSH8 0xFFFFFFFFFFFFFFFF DUP3 GT ISZERO PUSH2 0x11B8 JUMPI PUSH2 0x11B7 PUSH2 0x1126 JUMP JUMPDEST JUMPDEST PUSH2 0x11C1 DUP3 PUSH2 0x1116 JUMP JUMPDEST SWAP1 POP PUSH1 0x20 DUP2 ADD SWAP1 POP SWAP2 SWAP1 POP JUMP JUMPDEST DUP3 DUP2 DUP4 CALLDATACOPY PUSH0 DUP4 DUP4 ADD MSTORE POP POP POP JUMP JUMPDEST PUSH0 PUSH2 0x11EE PUSH2 0x11E9 DUP5 PUSH2 0x119E JUMP JUMPDEST PUSH2 0x1184 JUMP JUMPDEST SWAP1 POP DUP3 DUP2 MSTORE PUSH1 0x20 DUP2 ADD DUP5 DUP5 DUP5 ADD GT ISZERO PUSH2 0x120A JUMPI PUSH2 0x1209 PUSH2 0x1112 JUMP JUMPDEST JUMPDEST PUSH2 0x1215 DUP5 DUP3 DUP6 PUSH2 0x11CE JUMP JUMPDEST POP SWAP4 SWAP3 POP POP POP JUMP JUMPDEST PUSH0 DUP3 PUSH1 0x1F DUP4 ADD SLT PUSH2 0x1231 JUMPI PUSH2 0x1230 PUSH2 0x110E JUMP JUMPDEST JUMPDEST DUP2 CALLDATALOAD PUSH2 0x1241 DUP5 DUP3 PUSH1 0x20 DUP7 ADD PUSH2 0x11DC JUMP JUMPDEST SWAP2 POP POP SWAP3 SWAP2 POP POP JUMP JUMPDEST PUSH0 PUSH0 PUSH1 0x40 DUP4 DUP6 SUB SLT ISZERO PUSH2 0x1260 JUMPI PUSH2 0x125F PUSH2 0x10A8 JUMP JUMPDEST JUMPDEST PUSH0 DUP4 ADD CALLDATALOAD PUSH8 0xFFFFFFFFFFFFFFFF DUP2 GT ISZERO PUSH2 0x127D JUMPI PUSH2 0x127C PUSH2 0x10AC JUMP JUMPDEST JUMPDEST PUSH2 0x1289 DUP6 DUP3 DUP7 ADD PUSH2 0x121D JUMP JUMPDEST SWAP3 POP POP PUSH1 0x20 DUP4 ADD CALLDATALOAD PUSH8 0xFFFFFFFFFFFFFFFF DUP2 GT ISZERO PUSH2 0x12AA JUMPI PUSH2 0x12A9 PUSH2 0x10AC JUMP JUMPDEST JUMPDEST PUSH2 0x12B6 DUP6 DUP3 DUP7 ADD PUSH2 0x121D JUMP JUMPDEST SWAP2 POP POP SWAP3 POP SWAP3 SWAP1 POP JUMP JUMPDEST PUSH0 DUP2 ISZERO ISZERO SWAP1 POP SWAP2 SWAP1 POP JUMP JUMPDEST PUSH2 0x12D4 DUP2 PUSH2 0x12C0 JUMP JUMPDEST DUP3 MSTORE POP POP JUMP JUMPDEST PUSH0 PUSH1 0x20 DUP3 ADD SWAP1 POP PUSH2 0x12ED PUSH0 DUP4 ADD DUP5 PUSH2 0x12CB JUMP JUMPDEST SWAP3 SWAP2 POP POP JUMP JUMPDEST PUSH0 PUSH20 0xFFFFFFFFFFFFFFFFFFFFFFFFFFFFFFFFFFFFFFFF DUP3 AND SWAP1 POP SWAP2 SWAP1 POP JUMP JUMPDEST PUSH0 PUSH2 0x131C DUP3 PUSH2 0x12F3 JUMP JUMPDEST SWAP1 POP SWAP2 SWAP1 POP JUMP JUMPDEST PUSH2 0x132C DUP2 PUSH2 0x1312 JUMP JUMPDEST DUP2 EQ PUSH2 0x1336 JUMPI PUSH0 PUSH0 REVERT JUMPDEST POP JUMP JUMPDEST PUSH0 DUP2 CALLDATALOAD SWAP1 POP PUSH2 0x1347 DUP2 PUSH2 0x1323 JUMP JUMPDEST SWAP3 SWAP2 POP POP JUMP JUMPDEST PUSH0 PUSH0 PUSH1 0x40 DUP4 DUP6 SUB SLT ISZERO PUSH2 0x1363 JUMPI PUSH2 0x1362 PUSH2 0x10A8 JUMP JUMPDEST JUMPDEST PUSH0 PUSH2 0x1370 DUP6 DUP3 DUP7 ADD PUSH2 0x10CF JUMP JUMPDEST SWAP3 POP POP PUSH1 0x20 PUSH2 0x1381 DUP6 DUP3 DUP7 ADD PUSH2 0x1339 JUMP JUMPDEST SWAP2 POP POP SWAP3 POP SWAP3 SWAP1 POP JUMP JUMPDEST PUSH0 DUP2 MLOAD SWAP1 POP SWAP2 SWAP1 POP JUMP JUMPDEST PUSH0 DUP3 DUP3 MSTORE PUSH1 0x20 DUP3 ADD SWAP1 POP SWAP3 SWAP2 POP POP JUMP JUMPDEST PUSH0 DUP2 SWAP1 POP PUSH1 0x20 DUP3 ADD SWAP1 POP SWAP2 SWAP1 POP JUMP JUMPDEST PUSH2 0x13BD DUP2 PUSH2 0x10B0 JUMP JUMPDEST DUP3 MSTORE POP POP JUMP JUMPDEST PUSH0 PUSH2 0x13CE DUP4 DUP4 PUSH2 0x13B4 JUMP JUMPDEST PUSH1 0x20 DUP4 ADD SWAP1 POP SWAP3 SWAP2 POP POP JUMP JUMPDEST PUSH0 PUSH1 0x20 DUP3 ADD SWAP1 POP SWAP2 SWAP1 POP JUMP JUMPDEST PUSH0 PUSH2 0x13F0 DUP3 PUSH2 0x138B JUMP JUMPDEST PUSH2 0x13FA DUP2 DUP6 PUSH2 0x1395 JUMP JUMPDEST SWAP4 POP PUSH2 0x1405 DUP4 PUSH2 0x13A5 JUMP JUMPDEST DUP1 PUSH0 JUMPDEST DUP4 DUP2 LT ISZERO PUSH2 0x1435 JUMPI DUP2 MLOAD PUSH2 0x141C DUP9 DUP3 PUSH2 0x13C3 JUMP JUMPDEST SWAP8 POP PUSH2 0x1427 DUP4 PUSH2 0x13DA JUMP JUMPDEST SWAP3 POP POP PUSH1 0x1 DUP2 ADD SWAP1 POP PUSH2 0x1408 JUMP JUMPDEST POP DUP6 SWAP4 POP POP POP POP SWAP3 SWAP2 POP POP JUMP JUMPDEST PUSH0 DUP2 MLOAD SWAP1 POP SWAP2 SWAP1 POP JUMP JUMPDEST PUSH0 DUP3 DUP3 MSTORE PUSH1 0x20 DUP3 ADD SWAP1 POP SWAP3 SWAP2 POP POP JUMP JUMPDEST PUSH0 DUP2 SWAP1 POP PUSH1 0x20 DUP3 ADD SWAP1 POP SWAP2 SWAP1 POP JUMP JUMPDEST PUSH0 DUP2 MLOAD SWAP1 POP SWAP2 SWAP1 POP JUMP JUMPDEST PUSH0 DUP3 DUP3 MSTORE PUSH1 0x20 DUP3 ADD SWAP1 POP SWAP3 SWAP2 POP POP JUMP JUMPDEST DUP3 DUP2 DUP4 MCOPY PUSH0 DUP4 DUP4 ADD MSTORE POP POP POP JUMP JUMPDEST PUSH0 PUSH2 0x149D DUP3 PUSH2 0x146B JUMP JUMPDEST PUSH2 0x14A7 DUP2 DUP6 PUSH2 0x1475 JUMP JUMPDEST SWAP4 POP PUSH2 0x14B7 DUP2 DUP6 PUSH1 0x20 DUP7 ADD PUSH2 0x1485 JUMP JUMPDEST PUSH2 0x14C0 DUP2 PUSH2 0x1116 JUMP JUMPDEST DUP5 ADD SWAP2 POP POP SWAP3 SWAP2 POP POP JUMP JUMPDEST PUSH0 PUSH2 0x14D6 DUP4 DUP4 PUSH2 0x1493 JUMP JUMPDEST SWAP1 POP SWAP3 SWAP2 POP POP JUMP JUMPDEST PUSH0 PUSH1 0x20 DUP3 ADD SWAP1 POP SWAP2 SWAP1 POP JUMP JUMPDEST PUSH0 PUSH2 0x14F4 DUP3 PUSH2 0x1442 JUMP JUMPDEST PUSH2 0x14FE DUP2 DUP6 PUSH2 0x144C JUMP JUMPDEST SWAP4 POP DUP4 PUSH1 0x20 DUP3 MUL DUP6 ADD PUSH2 0x1510 DUP6 PUSH2 0x145C JUMP JUMPDEST DUP1 PUSH0 JUMPDEST DUP6 DUP2 LT ISZERO PUSH2 0x154B JUMPI DUP5 DUP5 SUB DUP10 MSTORE DUP2 MLOAD PUSH2 0x152C DUP6 DUP3 PUSH2 0x14CB JUMP JUMPDEST SWAP5 POP PUSH2 0x1537 DUP4 PUSH2 0x14DE JUMP JUMPDEST SWAP3 POP PUSH1 0x20 DUP11 ADD SWAP10 POP POP PUSH1 0x1 DUP2 ADD SWAP1 POP PUSH2 0x1513 JUMP JUMPDEST POP DUP3 SWAP8 POP DUP8 SWAP6 POP POP POP POP POP POP SWAP3 SWAP2 POP POP JUMP JUMPDEST PUSH0 PUSH1 0x80 DUP3 ADD SWAP1 POP DUP2 DUP2 SUB PUSH0 DUP4 ADD MSTORE PUSH2 0x1575 DUP2 DUP8 PUSH2 0x13E6 JUMP JUMPDEST SWAP1 POP DUP2 DUP2 SUB PUSH1 0x20 DUP4 ADD MSTORE PUSH2 0x1589 DUP2 DUP7 PUSH2 0x14EA JUMP JUMPDEST SWAP1 POP DUP2 DUP2 SUB PUSH1 0x40 DUP4 ADD MSTORE PUSH2 0x159D DUP2 DUP6 PUSH2 0x14EA JUMP JUMPDEST SWAP1 POP DUP2 DUP2 SUB PUSH1 0x60 DUP4 ADD MSTORE PUSH2 0x15B1 DUP2 DUP5 PUSH2 0x13E6 JUMP JUMPDEST SWAP1 POP SWAP6 SWAP5 POP POP POP POP POP JUMP JUMPDEST PUSH2 0x15C5 DUP2 PUSH2 0x10B0 JUMP JUMPDEST DUP3 MSTORE POP POP JUMP JUMPDEST PUSH0 PUSH1 0x20 DUP3 ADD SWAP1 POP PUSH2 0x15DE PUSH0 DUP4 ADD DUP5 PUSH2 0x15BC JUMP JUMPDEST SWAP3 SWAP2 POP POP JUMP JUMPDEST PUSH0 PUSH0 PUSH1 0x40 DUP4 DUP6 SUB SLT ISZERO PUSH2 0x15FA JUMPI PUSH2 0x15F9 PUSH2 0x10A8 JUMP JUMPDEST JUMPDEST PUSH0 PUSH2 0x1607 DUP6 DUP3 DUP7 ADD PUSH2 0x10CF JUMP JUMPDEST SWAP3 POP POP PUSH1 0x20 PUSH2 0x1618 DUP6 DUP3 DUP7 ADD PUSH2 0x10CF JUMP JUMPDEST SWAP2 POP POP SWAP3 POP SWAP3 SWAP1 POP JUMP JUMPDEST PUSH0 DUP3 DUP3 MSTORE PUSH1 0x20 DUP3 ADD SWAP1 POP SWAP3 SWAP2 POP POP JUMP JUMPDEST PUSH0 PUSH2 0x163C DUP3 PUSH2 0x146B JUMP JUMPDEST PUSH2 0x1646 DUP2 DUP6 PUSH2 0x1622 JUMP JUMPDEST SWAP4 POP PUSH2 0x1656 DUP2 DUP6 PUSH1 0x20 DUP7 ADD PUSH2 0x1485 JUMP JUMPDEST PUSH2 0x165F DUP2 PUSH2 0x1116 JUMP JUMPDEST DUP5 ADD SWAP2 POP POP SWAP3 SWAP2 POP POP JUMP JUMPDEST PUSH0 PUSH1 0x80 DUP3 ADD SWAP1 POP PUSH2 0x167D PUSH0 DUP4 ADD DUP8 PUSH2 0x15BC JUMP JUMPDEST DUP2 DUP2 SUB PUSH1 0x20 DUP4 ADD MSTORE PUSH2 0x168F DUP2 DUP7 PUSH2 0x1632 JUMP JUMPDEST SWAP1 POP DUP2 DUP2 SUB PUSH1 0x40 DUP4 ADD MSTORE PUSH2 0x16A3 DUP2 DUP6 PUSH2 0x1632 JUMP JUMPDEST SWAP1 POP PUSH2 0x16B2 PUSH1 0x60 DUP4 ADD DUP5 PUSH2 0x15BC JUMP JUMPDEST SWAP6 SWAP5 POP POP POP POP POP JUMP JUMPDEST PUSH0 PUSH1 0x40 DUP3 ADD SWAP1 POP DUP2 DUP2 SUB PUSH0 DUP4 ADD MSTORE PUSH2 0x16D3 DUP2 DUP6 PUSH2 0x14EA JUMP JUMPDEST SWAP1 POP PUSH2 0x16E2 PUSH1 0x20 DUP4 ADD DUP5 PUSH2 0x15BC JUMP JUMPDEST SWAP4 SWAP3 POP POP POP JUMP JUMPDEST PUSH2 0x16F2 DUP2 PUSH2 0x1312 JUMP JUMPDEST DUP3 MSTORE POP POP JUMP JUMPDEST PUSH0 PUSH1 0x20 DUP3 ADD SWAP1 POP PUSH2 0x170B PUSH0 DUP4 ADD DUP5 PUSH2 0x16E9 JUMP JUMPDEST SWAP3 SWAP2 POP POP JUMP JUMPDEST PUSH32 0x4261752063752064616E6720646F6E6700000000000000000000000000000000 PUSH0 DUP3 ADD MSTORE POP JUMP JUMPDEST PUSH0 PUSH2 0x1745 PUSH1 0x10 DUP4 PUSH2 0x1622 JUMP JUMPDEST SWAP2 POP PUSH2 0x1750 DUP3 PUSH2 0x1711 JUMP JUMPDEST PUSH1 0x20 DUP3 ADD SWAP1 POP SWAP2 SWAP1 POP JUMP JUMPDEST PUSH0 PUSH1 0x20 DUP3 ADD SWAP1 POP DUP2 DUP2 SUB PUSH0 DUP4 ADD MSTORE PUSH2 0x1772 DUP2 PUSH2 0x1739 JUMP JUMPDEST SWAP1 POP SWAP2 SWAP1 POP JUMP JUMPDEST PUSH32 0x42616E20646120626F2070686965750000000000000000000000000000000000 PUSH0 DUP3 ADD MSTORE POP JUMP JUMPDEST PUSH0 PUSH2 0x17AD PUSH1 0xF DUP4 PUSH2 0x1622 JUMP JUMPDEST SWAP2 POP PUSH2 0x17B8 DUP3 PUSH2 0x1779 JUMP JUMPDEST PUSH1 0x20 DUP3 ADD SWAP1 POP SWAP2 SWAP1 POP JUMP JUMPDEST PUSH0 PUSH1 0x20 DUP3 ADD SWAP1 POP DUP2 DUP2 SUB PUSH0 DUP4 ADD MSTORE PUSH2 0x17DA DUP2 PUSH2 0x17A1 JUMP JUMPDEST SWAP1 POP SWAP2 SWAP1 POP JUMP JUMPDEST PUSH32 0x4944207361690000000000000000000000000000000000000000000000000000 PUSH0 DUP3 ADD MSTORE POP JUMP JUMPDEST PUSH0 PUSH2 0x1815 PUSH1 0x6 DUP4 PUSH2 0x1622 JUMP JUMPDEST SWAP2 POP PUSH2 0x1820 DUP3 PUSH2 0x17E1 JUMP JUMPDEST PUSH1 0x20 DUP3 ADD SWAP1 POP SWAP2 SWAP1 POP JUMP JUMPDEST PUSH0 PUSH1 0x20 DUP3 ADD SWAP1 POP DUP2 DUP2 SUB PUSH0 DUP4 ADD MSTORE PUSH2 0x1842 DUP2 PUSH2 0x1809 JUMP JUMPDEST SWAP1 POP SWAP2 SWAP1 POP JUMP JUMPDEST PUSH32 0x4E487B7100000000000000000000000000000000000000000000000000000000 PUSH0 MSTORE PUSH1 0x11 PUSH1 0x4 MSTORE PUSH1 0x24 PUSH0 REVERT JUMPDEST PUSH0 PUSH2 0x1880 DUP3 PUSH2 0x10B0 JUMP JUMPDEST SWAP2 POP PUSH32 0xFFFFFFFFFFFFFFFFFFFFFFFFFFFFFFFFFFFFFFFFFFFFFFFFFFFFFFFFFFFFFFFF DUP3 SUB PUSH2 0x18B2 JUMPI PUSH2 0x18B1 PUSH2 0x1849 JUMP JUMPDEST JUMPDEST PUSH1 0x1 DUP3 ADD SWAP1 POP SWAP2 SWAP1 POP JUMP JUMPDEST PUSH0 PUSH1 0x60 DUP3 ADD SWAP1 POP PUSH2 0x18D0 PUSH0 DUP4 ADD DUP7 PUSH2 0x15BC JUMP JUMPDEST PUSH2 0x18DD PUSH1 0x20 DUP4 ADD DUP6 PUSH2 0x16E9 JUMP JUMPDEST PUSH2 0x18EA PUSH1 0x40 DUP4 ADD DUP5 PUSH2 0x15BC JUMP JUMPDEST SWAP5 SWAP4 POP POP POP POP JUMP JUMPDEST PUSH32 0x4368692061646D696E206D6F6920636F20717579656E00000000000000000000 PUSH0 DUP3 ADD MSTORE POP JUMP JUMPDEST PUSH0 PUSH2 0x1926 PUSH1 0x16 DUP4 PUSH2 0x1622 JUMP JUMPDEST SWAP2 POP PUSH2 0x1931 DUP3 PUSH2 0x18F2 JUMP JUMPDEST PUSH1 0x20 DUP3 ADD SWAP1 POP SWAP2 SWAP1 POP JUMP JUMPDEST PUSH0 PUSH1 0x20 DUP3 ADD SWAP1 POP DUP2 DUP2 SUB PUSH0 DUP4 ADD MSTORE PUSH2 0x1953 DUP2 PUSH2 0x191A JUMP JUMPDEST SWAP1 POP SWAP2 SWAP1 POP JUMP JUMPDEST PUSH32 0x48652074686F6E6720636875612064756F63206B686F692074616F2E00000000 PUSH0 DUP3 ADD MSTORE POP JUMP JUMPDEST PUSH0 PUSH2 0x198E PUSH1 0x1C DUP4 PUSH2 0x1622 JUMP JUMPDEST SWAP2 POP PUSH2 0x1999 DUP3 PUSH2 0x195A JUMP JUMPDEST PUSH1 0x20 DUP3 ADD SWAP1 POP SWAP2 SWAP1 POP JUMP JUMPDEST PUSH0 PUSH1 0x20 DUP3 ADD SWAP1 POP DUP2 DUP2 SUB PUSH0 DUP4 ADD MSTORE PUSH2 0x19BB DUP2 PUSH2 0x1982 JUMP JUMPDEST SWAP1 POP SWAP2 SWAP1 POP JUMP JUMPDEST PUSH32 0x4B686F6E672074686520626F2073756E6720756E67207669656E206B68692063 PUSH0 DUP3 ADD MSTORE PUSH32 0x756F632062696E682063686F6E206461206B657420746875632E000000000000 PUSH1 0x20 DUP3 ADD MSTORE POP JUMP JUMPDEST PUSH0 PUSH2 0x1A1C PUSH1 0x3A DUP4 PUSH2 0x1622 JUMP JUMPDEST SWAP2 POP PUSH2 0x1A27 DUP3 PUSH2 0x19C2 JUMP JUMPDEST PUSH1 0x40 DUP3 ADD SWAP1 POP SWAP2 SWAP1 POP JUMP JUMPDEST PUSH0 PUSH1 0x20 DUP3 ADD SWAP1 POP DUP2 DUP2 SUB PUSH0 DUP4 ADD MSTORE PUSH2 0x1A49 DUP2 PUSH2 0x1A10 JUMP JUMPDEST SWAP1 POP SWAP2 SWAP1 POP JUMP JUMPDEST PUSH32 0x4E487B7100000000000000000000000000000000000000000000000000000000 PUSH0 MSTORE PUSH1 0x22 PUSH1 0x4 MSTORE PUSH1 0x24 PUSH0 REVERT JUMPDEST PUSH0 PUSH1 0x2 DUP3 DIV SWAP1 POP PUSH1 0x1 DUP3 AND DUP1 PUSH2 0x1A94 JUMPI PUSH1 0x7F DUP3 AND SWAP2 POP JUMPDEST PUSH1 0x20 DUP3 LT DUP2 SUB PUSH2 0x1AA7 JUMPI PUSH2 0x1AA6 PUSH2 0x1A50 JUMP JUMPDEST JUMPDEST POP SWAP2 SWAP1 POP JUMP JUMPDEST PUSH0 DUP2 SWAP1 POP DUP2 PUSH0 MSTORE PUSH1 0x20 PUSH0 KECCAK256 SWAP1 POP SWAP2 SWAP1 POP JUMP JUMPDEST PUSH0 PUSH1 0x20 PUSH1 0x1F DUP4 ADD DIV SWAP1 POP SWAP2 SWAP1 POP JUMP JUMPDEST PUSH0 DUP3 DUP3 SHL SWAP1 POP SWAP3 SWAP2 POP POP JUMP JUMPDEST PUSH0 PUSH1 0x8 DUP4 MUL PUSH2 0x1B09 PUSH32 0xFFFFFFFFFFFFFFFFFFFFFFFFFFFFFFFFFFFFFFFFFFFFFFFFFFFFFFFFFFFFFFFF DUP3 PUSH2 0x1ACE JUMP JUMPDEST PUSH2 0x1B13 DUP7 DUP4 PUSH2 0x1ACE JUMP JUMPDEST SWAP6 POP DUP1 NOT DUP5 AND SWAP4 POP DUP1 DUP7 AND DUP5 OR SWAP3 POP POP POP SWAP4 SWAP3 POP POP POP JUMP JUMPDEST PUSH0 DUP2 SWAP1 POP SWAP2 SWAP1 POP JUMP JUMPDEST PUSH0 PUSH2 0x1B4E PUSH2 0x1B49 PUSH2 0x1B44 DUP5 PUSH2 0x10B0 JUMP JUMPDEST PUSH2 0x1B2B JUMP JUMPDEST PUSH2 0x10B0 JUMP JUMPDEST SWAP1 POP SWAP2 SWAP1 POP JUMP JUMPDEST PUSH0 DUP2 SWAP1 POP SWAP2 SWAP1 POP JUMP JUMPDEST PUSH2 0x1B67 DUP4 PUSH2 0x1B34 JUMP JUMPDEST PUSH2 0x1B7B PUSH2 0x1B73 DUP3 PUSH2 0x1B55 JUMP JUMPDEST DUP5 DUP5 SLOAD PUSH2 0x1ADA JUMP JUMPDEST DUP3 SSTORE POP POP POP POP JUMP JUMPDEST PUSH0 PUSH0 SWAP1 POP SWAP1 JUMP JUMPDEST PUSH2 0x1B92 PUSH2 0x1B83 JUMP JUMPDEST PUSH2 0x1B9D DUP2 DUP5 DUP5 PUSH2 0x1B5E JUMP JUMPDEST POP POP POP JUMP JUMPDEST JUMPDEST DUP2 DUP2 LT ISZERO PUSH2 0x1BC0 JUMPI PUSH2 0x1BB5 PUSH0 DUP3 PUSH2 0x1B8A JUMP JUMPDEST PUSH1 0x1 DUP2 ADD SWAP1 POP PUSH2 0x1BA3 JUMP JUMPDEST POP POP JUMP JUMPDEST PUSH1 0x1F DUP3 GT ISZERO PUSH2 0x1C05 JUMPI PUSH2 0x1BD6 DUP2 PUSH2 0x1AAD JUMP JUMPDEST PUSH2 0x1BDF DUP5 PUSH2 0x1ABF JUMP JUMPDEST DUP2 ADD PUSH1 0x20 DUP6 LT ISZERO PUSH2 0x1BEE JUMPI DUP2 SWAP1 POP JUMPDEST PUSH2 0x1C02 PUSH2 0x1BFA DUP6 PUSH2 0x1ABF JUMP JUMPDEST DUP4 ADD DUP3 PUSH2 0x1BA2 JUMP JUMPDEST POP POP JUMPDEST POP POP POP JUMP JUMPDEST PUSH0 DUP3 DUP3 SHR SWAP1 POP SWAP3 SWAP2 POP POP JUMP JUMPDEST PUSH0 PUSH2 0x1C25 PUSH0 NOT DUP5 PUSH1 0x8 MUL PUSH2 0x1C0A JUMP JUMPDEST NOT DUP1 DUP4 AND SWAP2 POP POP SWAP3 SWAP2 POP POP JUMP JUMPDEST PUSH0 PUSH2 0x1C3D DUP4 DUP4 PUSH2 0x1C16 JUMP JUMPDEST SWAP2 POP DUP3 PUSH1 0x2 MUL DUP3 OR SWAP1 POP SWAP3 SWAP2 POP POP JUMP JUMPDEST PUSH2 0x1C56 DUP3 PUSH2 0x146B JUMP JUMPDEST PUSH8 0xFFFFFFFFFFFFFFFF DUP2 GT ISZERO PUSH2 0x1C6F JUMPI PUSH2 0x1C6E PUSH2 0x1126 JUMP JUMPDEST JUMPDEST PUSH2 0x1C79 DUP3 SLOAD PUSH2 0x1A7D JUMP JUMPDEST PUSH2 0x1C84 DUP3 DUP3 DUP6 PUSH2 0x1BC4 JUMP JUMPDEST PUSH0 PUSH1 0x20 SWAP1 POP PUSH1 0x1F DUP4 GT PUSH1 0x1 DUP2 EQ PUSH2 0x1CB5 JUMPI PUSH0 DUP5 ISZERO PUSH2 0x1CA3 JUMPI DUP3 DUP8 ADD MLOAD SWAP1 POP JUMPDEST PUSH2 0x1CAD DUP6 DUP3 PUSH2 0x1C32 JUMP JUMPDEST DUP7 SSTORE POP PUSH2 0x1D14 JUMP JUMPDEST PUSH1 0x1F NOT DUP5 AND PUSH2 0x1CC3 DUP7 PUSH2 0x1AAD JUMP JUMPDEST PUSH0 JUMPDEST DUP3 DUP2 LT ISZERO PUSH2 0x1CEA JUMPI DUP5 DUP10 ADD MLOAD DUP3 SSTORE PUSH1 0x1 DUP3 ADD SWAP2 POP PUSH1 0x20 DUP6 ADD SWAP5 POP PUSH1 0x20 DUP2 ADD SWAP1 POP PUSH2 0x1CC5 JUMP JUMPDEST DUP7 DUP4 LT ISZERO PUSH2 0x1D07 JUMPI DUP5 DUP10 ADD MLOAD PUSH2 0x1D03 PUSH1 0x1F DUP10 AND DUP3 PUSH2 0x1C16 JUMP JUMPDEST DUP4 SSTORE POP JUMPDEST PUSH1 0x1 PUSH1 0x2 DUP9 MUL ADD DUP9 SSTORE POP POP POP JUMPDEST POP POP POP POP POP POP JUMP JUMPDEST PUSH0 PUSH1 0x40 DUP3 ADD SWAP1 POP PUSH2 0x1D2F PUSH0 DUP4 ADD DUP6 PUSH2 0x15BC JUMP JUMPDEST DUP2 DUP2 SUB PUSH1 0x20 DUP4 ADD MSTORE PUSH2 0x1D41 DUP2 DUP5 PUSH2 0x1632 JUMP JUMPDEST SWAP1 POP SWAP4 SWAP3 POP POP POP JUMP JUMPDEST PUSH0 PUSH2 0x1D54 DUP3 PUSH2 0x10B0 JUMP JUMPDEST SWAP2 POP PUSH2 0x1D5F DUP4 PUSH2 0x10B0 JUMP JUMPDEST SWAP3 POP DUP3 DUP3 SUB SWAP1 POP DUP2 DUP2 GT ISZERO PUSH2 0x1D77 JUMPI PUSH2 0x1D76 PUSH2 0x1849 JUMP JUMPDEST JUMPDEST SWAP3 SWAP2 POP POP JUMP JUMPDEST PUSH32 0x4E487B7100000000000000000000000000000000000000000000000000000000 PUSH0 MSTORE PUSH1 0x32 PUSH1 0x4 MSTORE PUSH1 0x24 PUSH0 REVERT INVALID LOG2 PUSH5 0x6970667358 0x22 SLT KECCAK256 SIGNEXTEND 0xA6 0xAB 0x4E PUSH3 0xAABF4B SWAPN 0xCD 0xA8 EXTDELEGATECALL 0x2C 0x4C 0xCD CALLVALUE PUSH22 0x980D3AD95334916A3FA867668B716564736F6C634300 ADDMOD 0x1F STOP CALLER "
		},
		"gasEstimates": {
			"creation": {
				"codeDepositCost": "1529600",
				"executionCost": "55186",
				"totalCost": "1584786"
			},
			"external": {
				"admin()": "2595",
				"candidates(uint256,uint256)": "infinite",
				"candidatesCount(uint256)": "infinite",
				"currentElectionId()": "2491",
				"getResults()": "infinite",
				"getWinner()": "infinite",
				"hasVoted(uint256,address)": "3137",
				"registerCandidate(string,string)": "infinite",
				"startNewElection()": "infinite",
				"stopVoting()": "30024",
				"vote(uint256)": "infinite",
				"votingActive()": "2561"
			}
		},
		"methodIdentifiers": {
			"admin()": "f851a440",
			"candidates(uint256,uint256)": "7de14242",
			"candidatesCount(uint256)": "6670a73e",
			"currentElectionId()": "98ecf2a0",
			"getResults()": "4717f97c",
			"getWinner()": "8e7ea5b2",
			"hasVoted(uint256,address)": "43859632",
			"registerCandidate(string,string)": "0dbce4dd",
			"startNewElection()": "47f33fb5",
			"stopVoting()": "fab2f86b",
			"vote(uint256)": "0121b93f",
			"votingActive()": "408e2727"
		}
	},
	"abi": [
		{
			"inputs": [],
			"stateMutability": "nonpayable",
			"type": "constructor"
		},
		{
			"anonymous": false,
			"inputs": [
				{
					"indexed": false,
					"internalType": "uint256",
					"name": "electionId",
					"type": "uint256"
				},
				{
					"indexed": false,
					"internalType": "string",
					"name": "name",
					"type": "string"
				}
			],
			"name": "CandidateRegistered",
			"type": "event"
		},
		{
			"anonymous": false,
			"inputs": [
				{
					"indexed": false,
					"internalType": "uint256",
					"name": "electionId",
					"type": "uint256"
				}
			],
			"name": "ElectionStarted",
			"type": "event"
		},
		{
			"anonymous": false,
			"inputs": [
				{
					"indexed": false,
					"internalType": "uint256",
					"name": "electionId",
					"type": "uint256"
				}
			],
			"name": "ElectionStopped",
			"type": "event"
		},
		{
			"anonymous": false,
			"inputs": [
				{
					"indexed": false,
					"internalType": "uint256",
					"name": "electionId",
					"type": "uint256"
				},
				{
					"indexed": false,
					"internalType": "address",
					"name": "voter",
					"type": "address"
				},
				{
					"indexed": false,
					"internalType": "uint256",
					"name": "candidateId",
					"type": "uint256"
				}
			],
			"name": "VoteCasted",
			"type": "event"
		},
		{
			"inputs": [],
			"name": "admin",
			"outputs": [
				{
					"internalType": "address",
					"name": "",
					"type": "address"
				}
			],
			"stateMutability": "view",
			"type": "function"
		},
		{
			"inputs": [
				{
					"internalType": "uint256",
					"name": "",
					"type": "uint256"
				},
				{
					"internalType": "uint256",
					"name": "",
					"type": "uint256"
				}
			],
			"name": "candidates",
			"outputs": [
				{
					"internalType": "uint256",
					"name": "id",
					"type": "uint256"
				},
				{
					"internalType": "string",
					"name": "name",
					"type": "string"
				},
				{
					"internalType": "string",
					"name": "description",
					"type": "string"
				},
				{
					"internalType": "uint256",
					"name": "voteCount",
					"type": "uint256"
				}
			],
			"stateMutability": "view",
			"type": "function"
		},
		{
			"inputs": [
				{
					"internalType": "uint256",
					"name": "",
					"type": "uint256"
				}
			],
			"name": "candidatesCount",
			"outputs": [
				{
					"internalType": "uint256",
					"name": "",
					"type": "uint256"
				}
			],
			"stateMutability": "view",
			"type": "function"
		},
		{
			"inputs": [],
			"name": "currentElectionId",
			"outputs": [
				{
					"internalType": "uint256",
					"name": "",
					"type": "uint256"
				}
			],
			"stateMutability": "view",
			"type": "function"
		},
		{
			"inputs": [],
			"name": "getResults",
			"outputs": [
				{
					"internalType": "uint256[]",
					"name": "",
					"type": "uint256[]"
				},
				{
					"internalType": "string[]",
					"name": "",
					"type": "string[]"
				},
				{
					"internalType": "string[]",
					"name": "",
					"type": "string[]"
				},
				{
					"internalType": "uint256[]",
					"name": "",
					"type": "uint256[]"
				}
			],
			"stateMutability": "view",
			"type": "function"
		},
		{
			"inputs": [],
			"name": "getWinner",
			"outputs": [
				{
					"internalType": "string[]",
					"name": "winnerNames",
					"type": "string[]"
				},
				{
					"internalType": "uint256",
					"name": "winnerVotes",
					"type": "uint256"
				}
			],
			"stateMutability": "view",
			"type": "function"
		},
		{
			"inputs": [
				{
					"internalType": "uint256",
					"name": "",
					"type": "uint256"
				},
				{
					"internalType": "address",
					"name": "",
					"type": "address"
				}
			],
			"name": "hasVoted",
			"outputs": [
				{
					"internalType": "bool",
					"name": "",
					"type": "bool"
				}
			],
			"stateMutability": "view",
			"type": "function"
		},
		{
			"inputs": [
				{
					"internalType": "string",
					"name": "_name",
					"type": "string"
				},
				{
					"internalType": "string",
					"name": "_description",
					"type": "string"
				}
			],
			"name": "registerCandidate",
			"outputs": [],
			"stateMutability": "nonpayable",
			"type": "function"
		},
		{
			"inputs": [],
			"name": "startNewElection",
			"outputs": [],
			"stateMutability": "nonpayable",
			"type": "function"
		},
		{
			"inputs": [],
			"name": "stopVoting",
			"outputs": [],
			"stateMutability": "nonpayable",
			"type": "function"
		},
		{
			"inputs": [
				{
					"internalType": "uint256",
					"name": "_candidateId",
					"type": "uint256"
				}
			],
			"name": "vote",
			"outputs": [],
			"stateMutability": "nonpayable",
			"type": "function"
		},
		{
			"inputs": [],
			"name": "votingActive",
			"outputs": [
				{
					"internalType": "bool",
					"name": "",
					"type": "bool"
				}
			],
			"stateMutability": "view",
			"type": "function"
		}
	]
}